:020000040800F2
:1000000000500020B12A0008FD0A0008FF0A00087D
:10001000010B0008030B0008050B0008000000009E
:10002000000000000000000000000000070B0008B6
:10003000090B0008000000000B0B00080D0B000866
:10004000F92A0008F92A0008F92A0008F92A000804
:10005000F92A0008F92A0008F92A0008F92A0008F4
:10006000F92A0008F92A0008F92A0008F92A0008E4
:10007000F92A0008F92A0008F92A0008F92A0008D4
:10008000F92A0008F92A0008F92A0008F92A0008C4
:10009000F92A0008F92A0008F92A0008F92A0008B4
:1000A000F92A0008F92A0008F92A0008F92A0008A4
:1000B000F92A0008F92A0008150B0008F92A000897
:1000C000F92A0008F92A0008F92A0008F92A000884
:1000D000F92A0008F92A0008250B0008F92A000867
:1000E000F92A0008F92A0008F92A0008000000008F
:1000F0000000000000000000000000000000000000
:0C01000000000000000000005FF808F1A3
:10010C0010B5054C237833B9044B13B10448AFF345
:10011C0000800123237010BD24000020000000008B
:10012C00542B000808B5034B1BB103490348AFF32C
:10013C00008008BD0000000028000020542B00089F
:10014C0080F0004002E000BF81F0004142001FBF80
:10015C005FEA410392EA030F7FEA226C7FEA236C89
:10016C006AD04FEA1262D2EB1363C1BFD21841407E
:10017C0048404140B8BF5B42192B88BF704710F014
:10018C00004F40F4000020F07F4018BF404211F0B7
:10019C00004F41F4000121F07F4118BF494292EA1F
:1001AC00030F3FD0A2F1010241FA03FC10EB0C004B
:1001BC00C3F1200301FA03F100F0004302D54942D8
:1001CC0060EB4000B0F5000F13D3B0F1807F06D385
:1001DC0040084FEA310102F10102FE2A51D2B1F17D
:1001EC00004F40EBC25008BF20F0010040EA030072
:1001FC007047490040EB000010F4000FA2F101021F
:10020C00EDD1B0FA80FCACF1080CB2EB0C0200FAA8
:10021C000CF0AABF00EBC25052421843BCBFD040F6
:10022C001843704792F0000F81F4000106BF80F470
:10023C0000000132013BB5E74FEA41037FEA226C33
:10024C0018BF7FEA236C21D092EA030F04D092F0FE
:10025C00000F08BF0846704790EA010F1CBF002032
:10026C00704712F07F4F04D1400028BF40F000408F
:10027C00704712F100723CBF00F50000704700F0AF
:10028C00004343F0FE4040F4000070477FEA2262D6
:10029C0016BF08467FEA23630146420206BF5FEAA7
:1002AC00412390EA010F40F4800070474FF00003A7
:1002BC0004E000BF10F0004348BF40425FEA000C6E
:1002CC0008BF704743F0964301464FF000001CE016
:1002DC0050EA010208BF70474FF000030AE000BF6C
:1002EC0050EA010208BF704711F0004302D54042AA
:1002FC0061EB41015FEA010C02BF8446014600201C
:10030C0043F0B64308BFA3F18053A3F50003BCFA36
:10031C008CF2083AA3EBC25310DB01FA02FC6344E3
:10032C0000FA02FCC2F12002BCF1004F20FA02F2EA
:10033C0043EB020008BF20F00100704702F12002DD
:10034C0001FA02FCC2F1200250EA4C0021FA02F23E
:10035C0043EB020008BF20EADC7070474FF0FF0C43
:10036C001CEAD0521EBF1CEAD15392EA0C0F93EA3E
:10037C000C0F6FD01A4480EA010C400218BF5FEAE0
:10038C0041211ED04FF0006343EA501043EA511153
:10039C00A0FB01310CF00040B1F5000F3EBF49004D
:1003AC0041EAD3715B0040EA010062F17F02FD2A51
:1003BC001DD8B3F1004F40EBC25008BF20F0010034
:1003CC00704790F0000F0CF0004C08BF49024CEA4B
:1003DC00502040EA51207F3AC2BFD2F1FF0340EADD
:1003EC00C250704740F400004FF00003013A5DDC4E
:1003FC0012F1190FDCBF00F000407047C2F100028F
:10040C00410021FA02F1C2F1200200FA02FC5FEA7B
:10041C00310040F1000053EA4C0308BF20EADC70C5
:10042C00704792F0000F00F0004C02BF400010F437
:10043C00000F013AF9D040EA0C0093F0000F01F0E4
:10044C00004C02BF490011F4000F013BF9D041EA06
:10045C000C018FE70CEAD15392EA0C0F18BF93EA08
:10046C000C0F0AD030F0004C18BF31F0004CD8D132
:10047C0080EA010000F00040704790F0000F17BFB9
:10048C0090F0004F084691F0000F91F0004F14D0FF
:10049C0092EA0C0F01D142020FD193EA0C0F03D157
:1004AC004B0218BF084608D180EA010000F000405A
:1004BC0040F0FE4040F40000704740F0FE4040F435
:1004CC00400070474FF0FF0C1CEAD0521EBF1CEAD4
:1004DC00D15392EA0C0F93EA0C0F69D0A2EB0302F2
:1004EC0080EA010C49024FEA402037D04FF080538C
:1004FC0043EA111143EA10130CF000408B4238BF51
:10050C005B0042F17D024FF4000C8B4224BF5B1A5E
:10051C0040EA0C00B3EB510F24BFA3EB510340EAAC
:10052C005C00B3EB910F24BFA3EB910340EA9C005A
:10053C00B3EBD10F24BFA3EBD10340EADC001B01CA
:10054C0018BF5FEA1C1CE0D1FD2A3FF650AF8B426E
:10055C0040EBC25008BF20F0010070470CF0004C7B
:10056C004CEA50207F32C2BFD2F1FF0340EAC250A6
:10057C00704740F400004FF00003013A37E792F067
:10058C00000F00F0004C02BF400010F4000F013AC5
:10059C00F9D040EA0C0093F0000F01F0004C02BFC0
:1005AC00490011F4000F013BF9D041EA0C0195E729
:1005BC000CEAD15392EA0C0F08D142027FF47DAFC2
:1005CC0093EA0C0F7FF470AF084676E793EA0C0FB2
:1005DC0004D14B023FF44CAF08466EE730F0004CB0
:1005EC0018BF31F0004CCAD130F000427FF45CAF40
:1005FC0031F000437FF43CAF5FE700BF4FF0FF3CAE
:10060C0006E000BF4FF0010C02E000BF4FF0010C00
:10061C004DF804CD4FEA40024FEA41037FEA226CC9
:10062C0018BF7FEA236C11D001B052EA530C18BFEB
:10063C0090EA010F58BFB2EB030088BFC81738BF50
:10064C006FEAE17018BF40F0010070477FEA226C3E
:10065C0002D15FEA402C05D17FEA236CE4D15FEA3A
:10066C00412CE1D05DF8040B704700BF844608466E
:10067C006146FFE70FB5FFF7C9FF002848BF10F12F
:10068C00000F0FBD4DF808EDFFF7F4FF0CBF012074
:10069C0000205DF808FB00BF4DF808EDFFF7EAFFFE
:1006AC0034BF012000205DF808FB00BF4DF808EDB9
:1006BC00FFF7E0FF94BF012000205DF808FB00BFAE
:1006CC004DF808EDFFF7D2FF94BF012000205DF834
:1006DC0008FB00BF4DF808EDFFF7C8FF34BF012041
:1006EC0000205DF808FB00BF4FEA4002B2F1FE4F5C
:1006FC000FD34FF09E03B3EB12620DD94FEA0023D8
:10070C0043F0004310F0004F23FA02F018BF4042B0
:10071C0070474FF00000704712F1610F01D1420297
:10072C0005D110F0004008BF6FF0004070474FF04B
:10073C000000704742000ED2B2F1FE4F0BD34FF0C7
:10074C009E03B3EB126209D44FEA002343F000433B
:10075C0023FA02F070474FF00000704712F1610F5E
:10076C0001D1420202D14FF0FF3070474FF0000030
:10077C00704700BF72B6FEE700B591B00023089336
:10078C0009930B930C930193029303930493059396
:10079C00012206924FF4803307930A9202220D92A3
:1007AC000E934FF4E0130F9306A800F085FF80B969
:1007BC000F23019302210291002303934FF48062D3
:1007CC000492059301A801F0A9F920B911B05DF8C4
:1007DC0004FBFFF7CFFFFFF7CDFF000080B500F063
:1007EC001DFFFFF7C9FF01F043FC01F07DFC02F097
:1007FC00F3F801F0AFFF01F0DDFF02F00DF89B4CB8
:10080C000021204600F0AEFD0C21204600F0AAFD90
:10081C003C21974800F018FE3C21964800F014FE4D
:10082C00954800F083FA40F6B83000F01BFF4CE01E
:10083C0092493846FFF74EFF18B1914B8F4A1A6018
:10084C0075E08F4B1F6072E08C495046FFF742FFFA
:10085C0018B18C4B894A1A6091E08A4BC3F800A0FE
:10086C008DE0A0F580301D38FFF724FD864B186015
:10087C00C0E0002C40F3D780844C00220821204695
:10088C0001F014FB01221021204601F00FFB002285
:10089C004FF40051204601F009FB01224FF4804136
:1008AC00204601F003FB7A4BB3F90000794B1B682F
:1008BC001844FFF7FFFC784B18606C4B1C68764BA8
:1008CC001868FFF737FF6063206408227349744887
:1008DC0001F02DFF00F0C0FE0646724B1860724B03
:1008EC001888FFF7E7FC0146674B1868FFF72CFCEC
:1008FC0005466E4B1968FFF731FD80466C4B18604E
:10090C006C4B19682846FFF729FD07463046FFF760
:10091C00CDFC044601463846FFF720FD07465749F3
:10092C00FFF7BAFE002883D0554B634A1A60634B1D
:10093C0019682846FFF712FD2146FFF7C3FD8146D3
:10094C005F4B18605F4B1D685F4B19682846FFF7BB
:10095C0005FD07465D4B18605D4B19682846FFF78F
:10096C00FDFC01462046FFF7F9FC82464349FFF7A0
:10097C0093FE00283FF468AF424B4F4A1A60554B28
:10098C0019682846FFF7EAFC2146FFF79BFD524BFE
:10099C00186049464046FFF7D9FBFFF7A5FE04B2A5
:1009AC003B4B1C80374B19683846FFF7CFFBFFF7E2
:1009BC009BFE384B186004442046FFF77BFC474BEA
:1009CC0018602B4B1B685D6A2DB2454B1D80A8B27D
:1009DC009A88801A00B25880FFF76CFC394B18606B
:1009EC00404B588810F4004F7FF43BAFFFF75EFC90
:1009FC00254B18603C4BA3FB06239B094FF47A72E2
:100A0C0002FB1363002B7FF434AF354B9D80194BE5
:100A1C001B685B6A1BB2354A138099B29088091A1D
:100A2C005180938025E7194C01220821204601F0C2
:100A3C003DFA00221021204601F038FA01224FF431
:100A4C000051204601F032FA00224FF4804120463A
:100A5C0001F02CFA0E4BB3F900000E4B1B68184436
:100A6C004042FFF727FC0C4B186026E7780100206A
:100A7C00C001002030010020E800002000409C450F
:100A8C0078000020680000204C000020000C014081
:100A9C00580000205C000020440000206C00002066
:100AAC00A000002054000020400000201000002076
:100ABC007C0000200800002000409CC500000020A5
:100ACC006400002050000020140000206000002072
:100ADC000C000020040000207400002048000020BE
:100AEC009400002084000020D34D62108C00002064
:100AFC00FEE7FEE7FEE7FEE7FEE77047704770474C
:100B0C0008B500F09DFD08BD08B5024800F047F996
:100B1C0008BD00BFE800002010B5154801F0E6FD47
:100B2C0018B1144B1B78AA2B03D0114801F09CFC74
:100B3C0010BD104BDB79552BF7D100230E4A1370E7
:100B4C00022BF2D85A0001320A49885C013311F8A1
:100B5C00132042EA002209490A8007480178A2F5CD
:100B6C009662074C24F8112001310170DBB2E7E7E3
:100B7C00A00000206C0000208000002082000020DB
:100B8C008400002082B00E4B9A6942F001029A61F7
:100B9C009A6902F001020092009ADA6942F08052DE
:100BAC00DA61DB6903F080530193019B054A5368BA
:100BBC0023F0E06343F00073536002B0704700BF52
:100BCC00001002400000014070B4036A026A22F077
:100BDC00010202624668826922F073020C6844EAE0
:100BEC00020523F002028B6813430D4CA04209D07E
:100BFC000B4CA0420DD0466085614A68426303628B
:100C0C0070BC704723F00803CA68134323F0040335
:100C1C00EEE726F440764A6932438E691643EAE7DA
:100C2C00002C014030B4036A026A22F48072026222
:100C3C004568C26922F073020C68224323F40073E6
:100C4C008C6843EA04230F4CA04209D00D4CA042FF
:100C5C000ED04560C2614A68C263036230BC704703
:100C6C0023F40063CC6843EA042323F48063EDE7A8
:100C7C0025F440554C6945EA04158C6945EA041580
:100C8C00E7E700BF002C014030B4036A026A22F48B
:100C9C00805202624468C26922F4E6420D6842EA5C
:100CAC00052223F400538D6843EA0533074DA8420F
:100CBC0006D04460C2614A680264036230BC70476B
:100CCC0024F480444D6944EA8514F2E7002C014079
:100CDC0010B4036A046A24F001040462846924F0E9
:100CEC00F00444EA021223F00A030B43826103620C
:100CFC0010BC704710B4036A046A24F01004046238
:100D0C00846924F4704444EA023223F0A00343EAD9
:100D1C0001138261036210BC7047836823F0700377
:100D2C00194341F0070181607047000090F83D3095
:100D3C00DBB2012B27D1022380F83D300268D36847
:100D4C0043F00103D3600368114A934210D0B3F10E
:100D5C00804F0DD0A2F59432934209D002F58062F7
:100D6C00934205D01A6842F001021A6000207047C5
:100D7C009A6802F00702062A07D01A6842F00102AC
:100D8C001A6000207047012070470020704700BF98
:100D9C00002C01407047704770477047704710B582
:100DAC00044603681A6912F0020F11D0DA6812F0C7
:100DBC00020F0DD06FF002021A6101230377036852
:100DCC009B6913F0030F70D0FFF7E6FF0023237726
:100DDC0023681A6912F0040F12D0DA6812F0040FAB
:100DEC000ED06FF004021A610223237723689B69EB
:100DFC0013F4407F5FD02046FFF7CEFF002323770C
:100E0C0023681A6912F0080F12D0DA6812F0080F72
:100E1C000ED06FF008021A61042323772368DB6974
:100E2C0013F0030F4ED02046FFF7B6FF00232377B5
:100E3C0023681A6912F0100F12D0DA6812F0100F32
:100E4C000ED06FF010021A61082323772368DB6938
:100E5C0013F4407F3DD02046FFF79EFF00232377FD
:100E6C0023681A6912F0010F03D0DA6812F0010F2F
:100E7C0036D123681A6912F0800F03D0DA6812F0A9
:100E8C00800F34D123681A6912F0400F03D0DA684E
:100E9C0012F0400F32D123681A6912F0200F03D0E0
:100EAC00DA6812F0200F30D110BDFFF774FF204626
:100EBC00FFF773FF8AE72046FFF76DFF2046FFF729
:100ECC006CFF9BE72046FFF766FF2046FFF765FFA8
:100EDC00ACE72046FFF75FFF2046FFF75EFFBDE75C
:100EEC006FF001021A612046FFF754FFC1E76FF063
:100EFC0080021A61204600F069FBC3E76FF04002E4
:100F0C001A612046FFF74AFFC5E76FF020021A610D
:100F1C00204600F05AFBC7E703681B4A90420AD0F0
:100F2C00B0F1804F07D0A2F59432904203D002F575
:100F3C008062904203D123F070034A681343124A33
:100F4C0090420AD0B0F1804F07D0A2F59432904273
:100F5C0003D002F58062904203D123F44073CA6837
:100F6C00134323F080034A69134303608B68C36205
:100F7C000B688362044B984202D001234361704793
:100F8C000B690363F9E700BF002C014040B310B5B7
:100F9C00044690F83D30F3B1022384F83D302146ED
:100FAC0051F8040BFFF7B8FF012384F8463084F89E
:100FBC003E3084F83F3084F8403084F8413084F877
:100FCC00423084F8433084F8443084F8453084F857
:100FDC003D30002010BD80F83C3001F0B5FCDBE763
:100FEC000120704740B310B5044690F83D30F3B182
:100FFC00022384F83D30214651F8040BFFF78CFF97
:10100C00012384F8463084F83E3084F83F3084F86D
:10101C00403084F8413084F8423084F8433084F80E
:10102C00443084F8453084F83D30002010BD80F801
:10103C003C3001F027FCDBE701207047002853D03F
:10104C00F8B504460D4690F83D30002B47D00223EE
:10105C0084F83D302268936823F4804323F007031F
:10106C009360214651F8040BFFF756FF21688A68FC
:10107C008E690F6A2868104326F4407626F0030622
:10108C00AA68AB6942EA0323334323F47C4323F07D
:10109C00FC03EE68EA6946EA02261E432A6A130339
:1010AC002A6943EA0213334327F022076A686D6901
:1010BC0042EA05123A43886021688B6123681A6200
:1010CC00012384F8463084F83E3084F83F3084F8AD
:1010DC00423084F8433084F83D300020F8BD80F86D
:1010EC003C3001F0E5FBB2E70120704730B4036AF5
:1010FC00026A22F0100202624468826922F4E6421B
:10110C000D6842EA052223F020038D6843EA05139B
:10111C000E4DA84209D00D4DA8420ED044608261FC
:10112C004A688263036230BC704723F08003CD6849
:10113C0043EA051323F04003EDE724F440644D69C2
:10114C0044EA85048D6944EA8504E7E7002C0140F4
:10115C0038B590F83C30012B66D00D46044601237F
:10116C0080F83C300C2A5DD8DFE802F0075C5C5C50
:10117C001E5C5C5C335C5C5C47000068FFF724FD24
:10118C002268936943F0080393612268936923F002
:10119C00040393612268936929690B4393610020CE
:1011AC00002384F83C3038BD0068FFF79FFF2268AD
:1011BC00936943F4006393612268936923F4806319
:1011CC00936122689369296943EA012393610020A2
:1011DC00E6E70068FFF726FD2268D36943F00803B1
:1011EC00D3612268D36923F00403D3612268D369E5
:1011FC0029690B43D3610020D2E70068FFF744FD57
:10120C002268D36943F40063D3612268D36923F461
:10121C008063D3612268D369296943EA0123D361CE
:10122C000020BDE70120BBE70220BCE710B48468B6
:10123C0024F47F4442EA03230B432343836010BC12
:10124C00704790F83C30012B79D010B5044601233F
:10125C0080F83C30022380F83D300268936823F418
:10126C007F4323F0770393600B68402B54D011D944
:10127C00702B39D023D8502B43D0602B1DD1CA688A
:10128C0049680068FFF736FD60212068FFF745FDCF
:10129C0000200BE0102B4AD005D9202B47D0302B47
:1012AC0045D0012002E0002B41D00120012384F81D
:1012BC003D30002384F83C3010BD0120F6E7B3F537
:1012CC00805F3AD0B3F5005F0CD1CB684A6889686F
:1012DC000068FFF7ABFF2268936843F48043936088
:1012EC000020E3E70120E1E7CB684A6889680068E1
:1012FC00FFF79CFF2268936843F07703936000200C
:10130C00D4E7CA6849680068FFF7E2FC50212068FE
:10131C00FFF703FD0020C9E7CA6849680068FFF7BA
:10132C00D7FC40212068FFF7F8FC0020BEE71946E7
:10133C002068FFF7F2FC0020B8E70020B6E7022097
:10134C00704710B401F01F01012303FA01F4036A82
:10135C0023EA04030362036A8A401343036210BC4A
:10136C00704700000A4669BB90F83E30DBB213F1BF
:10137C00FF3318BF0123002B60D110B5002A3DD1DB
:10138C00022380F83E301146044601220068FFF724
:10139C00D8FF23682B4A934240D02368294A9342B2
:1013AC0041D0B3F1804F3ED0A2F5943293423AD063
:1013BC0002F58062934236D01A6842F001021A603C
:1013CC0000203AE0042909D008290FD090F84130C8
:1013DC00DBB213F1FF3318BF0123CCE790F83F3099
:1013EC00DBB213F1FF3318BF0123C4E790F8403090
:1013FC00DBB213F1FF3318BF0123BCE7042A05D07D
:10140C00082A07D0022380F84130BCE7022380F879
:10141C003F30B8E7022380F84030B4E75A6C42F40E
:10142C0000425A64B9E79A6802F00702062A07D00C
:10143C001A6842F001021A60002010BD01207047AA
:10144C000020FAE7002C014070B5034690F83E00EE
:10145C00C0B293F83F2093F84240E4B293F8435063
:10146C000E46B9B9012847D1012C46D1022283F886
:10147C003E2083F842201C4666B3042E36D001224F
:10148C0000211868FFF75DFF012204212068FFF797
:10149C0058FF24E0D2B2EDB2042911D0012831D189
:1014AC00012A2AD1012C2FD1012D2FD1022283F810
:1014BC003E2083F83F2083F8422083F84320DAE76C
:1014CC00012A1BD1012D1BD1022283F83F2083F866
:1014DC004320D0E7012200211868FFF732FF226871
:1014EC00136843F001031360002006E0012204217D
:1014FC001868FFF726FFF2E7012070BD0120FCE71A
:10150C001046FAE70120F8E71046F6E72046F4E724
:10151C0090F83C30012B2BD030B4012380F83C30B8
:10152C00022380F83D3003685C689D6824F07004E9
:10153C000A6822435A6003680E4A93420AD0B3F1F8
:10154C00804F07D0A2F59432934203D002F580620B
:10155C00934204D125F080054A6815439D60012310
:10156C0080F83D30002380F83C30184630BC704782
:10157C0002207047002C014090F83C30012B22D007
:10158C00012380F83C30CB6823F440738A68134302
:10159C0023F480634A68134323F400630A681343FB
:1015AC0023F480530A69134323F400534A69134309
:1015BC0023F48043CA69134302685364002380F800
:1015CC003C30184670470220704770477047000047
:1015DC0010B504460E4B18784FF47A73B3FBF0F346
:1015EC000C4A1068B0FBF3F000F02AFD68B90F2C20
:1015FC0001D901200AE0002221464FF0FF3000F013
:10160C00DDFC054B1C60002000E0012010BD00BF7C
:10161C0018000020200000201C00002008B5074AFC
:10162C00136843F010031360032000F0B5FC0F2087
:10163C00FFF7CEFFFFF7A6FA002008BD00200240FE
:10164C00034A1168034B1B780B441360704700BFAF
:10165C009C00002018000020014B1868704700BF48
:10166C009C00002038B50446FFF7F6FF0546B4F1A0
:10167C00FF3F02D0044B1B781C44FFF7EDFF401BCF
:10168C00A042FAD338BD00BF1800002082B0084B2E
:10169C001B68084AA2FB03235B0A00FB03F00190C2
:1016AC0000BF019B5A1E0192002BF9D102B070476A
:1016BC0020000020D34D6210002800F0F18170B59D
:1016CC0082B00446036813F0010F2CD0AA4B5B6860
:1016DC0003F00C03042B1DD0A74B5B6803F00C0329
:1016EC00082B12D06368B3F5803F41D0002B55D145
:1016FC0003F1804303F504331A6822F480321A6034
:10170C001A6822F480221A6037E09B4B5B6813F452
:10171C00803FE7D0984B1B6813F4003F03D06368FD
:10172C00002B00F0BF81236813F0020F75D0924B91
:10173C005B6813F00C0F5FD08F4B5B6803F00C03EE
:10174C00082B54D02369002B00F089808B4B01228D
:10175C001A60FFF781FF0546874B1B6813F0020FD9
:10176C0074D1FFF779FF401B0228F5D903209EE1C5
:10177C00814A136843F480331360636843B3FFF703
:10178C006BFF05467C4B1B6813F4003FCBD1FFF776
:10179C0063FF401B6428F5D9032088E1B3F5A02F23
:1017AC0009D0754B1A6822F480321A601A6822F438
:1017BC0080221A60E1E703F18043A3F53C331A68F9
:1017CC0042F480221A601A6842F480321A60D4E71C
:1017DC00FFF742FF0546684B1B6813F4003FA2D08D
:1017EC00FFF73AFF401B6428F5D903205FE1624BF9
:1017FC005B6813F4803FA5D15F4B1B6813F0020F9D
:10180C0003D02369012B40F04F815B4A136823F00E
:10181C00F803616943EAC1031360236813F0080FEE
:10182C0032D0A369002B5BD0554B01221A60FFF715
:10183C0013FF0546504B5B6A13F0020F21D1FFF7E3
:10184C000BFF401B0228F5D9032030E14A4A1368EC
:10185C0023F0F803616943EAC1031360DDE7474BEA
:10186C0000221A60FFF7F8FE0546434B1B6813F085
:10187C00020FD2D0FFF7F0FE401B0228F5D903204F
:10188C0015E10120FFF702FF236813F0040F00F0AD
:10189C009780394BDB6913F0805F33D1364BDA69B3
:1018AC0042F08052DA61DB6903F080530193019BB3
:1018BC000125344B1B6813F4807F25D0E368012B82
:1018CC0036D0002B4CD103F1804303F504331A6A54
:1018DC0022F001021A621A6A22F004021A622CE047
:1018EC00274B00221A60FFF7B7FE0546224B5B6AB6
:1018FC0013F0020FC8D0FFF7AFFE401B0228F5D93A
:10190C000320D4E00025D4E71E4A136843F4807307
:10191C001360FFF7A1FE06461A4B1B6813F4807F79
:10192C00CCD1FFF799FE801B6428F5D90320BEE0CB
:10193C00114A136A43F001031362E36873B3FFF7B0
:10194C008BFE06460C4B1B6A13F0020F37D1FFF7C8
:10195C0083FE801B41F288339842F3D90320A6E022
:10196C00052B11D0044B1A6A22F001021A621A6A72
:10197C0022F004021A62E0E700100240000042422A
:10198C0080044242007000404D4B1A6A42F004023F
:10199C001A621A6A42F001021A62CEE7FFF75CFE85
:1019AC000646474B1B6A13F0020F08D0FFF754FE94
:1019BC00801B41F288339842F3D9032077E0E5B9D4
:1019CC00E369002B72D03E4A526802F00C02082ADE
:1019DC0056D0022B17D03B4B00221A60FFF73CFE6F
:1019EC000446374B1B6813F0007F47D0FFF734FEDB
:1019FC00001B0228F5D9032059E0314AD36923F0A2
:101A0C008053D361DCE72F4B00221A60FFF724FED2
:101A1C0005462B4B1B6813F0007F06D0FFF71CFE0E
:101A2C00401B0228F5D9032041E0236AB3F5803F1F
:101A3C001AD023494B6823F47413226A606A024358
:101A4C0013434B601F4B01221A60FFF705FE04463F
:101A5C001B4B1B6813F0007F0ED1FFF7FDFD001B25
:101A6C000228F5D9032022E0154A536823F40033E9
:101A7C00A1680B435360DCE7002018E0002016E05F
:101A8C00012B16D00E4B5B6803F48031226A914215
:101A9C0011D103F47013626A93420ED1002006E058
:101AAC0001207047012002E0012000E0002002B07C
:101ABC0070BD0120FBE70120F9E70120F7E700BF2B
:101ACC0000100240600042420F4B5B6803F00C02B6
:101ADC00082A01D00D487047C3F383420C498A5C35
:101AEC0013F4803F0BD0084B5B68C3F340430949A8
:101AFC00CB5C064800FB02F0B0FBF3F070470648E5
:101B0C0000FB02F0704700BF0010024000127A0088
:101B1C006C2B00087C2B000800093D00002800F00D
:101B2C00A08070B50446534B1B6803F007038B422F
:101B3C000BD2504A136823F007030B43136013684E
:101B4C0003F007038B4240F08E80236813F0020FE2
:101B5C0017D013F0040F04D0474A536843F4E063E2
:101B6C005360236813F0080F04D0434A536843F4BE
:101B7C0060535360404A536823F0F003A06803435A
:101B8C0053600D46236813F0010F31D06368012BAD
:101B9C0020D0022B25D0384A126812F0020F64D0E4
:101BAC0035494A6822F0030213434B60FFF754FD9A
:101BBC000646314B5B6803F00C036268B3EB820F93
:101BCC0016D0FFF749FD801B41F288339842F0D9BB
:101BDC00032045E0284A126812F4003FE0D10120AE
:101BEC003EE0254A126812F0007FD9D1012037E07F
:101BFC00204B1B6803F00703AB420AD91D4A13683C
:101C0C0023F007032B431360136803F00703AB4265
:101C1C002DD1236813F0040F06D0174A536823F410
:101C2C00E063E1680B435360236813F0080F07D09F
:101C3C00114A536823F46053216943EAC10353608A
:101C4C00FFF742FF0C4B5B68C3F303130B4AD35CE7
:101C5C00D8400B4B18600B4B1868FFF7B9FC0020F1
:101C6C0070BD012070470120FAE70120F8E7012040
:101C7C00F6E700BF0020024000100240802B000855
:101C8C00200000201C000020014B1868704700BF8A
:101C9C002000002008B5FFF7F7FF044B5B68C3F387
:101CAC000223034AD35CD84008BD00BF0010024099
:101CBC00902B000808B5FFF7E7FF044B5B68C3F3F4
:101CCC00C223034AD35CD84008BD00BF00100240B9
:101CDC00902B0008F0B482B000263546A0E0002A14
:101CEC0058D0012A10D1CE680EE06A4FBA4251D0BA
:101CFC0048D9694FBA424DD007F58037BA4249D01E
:101D0C00A7F58017BA4245D0FF2B57D88446FF2B36
:101D1C0057D8AC00DCF800200F27A74022EA0702B6
:101D2C0006FA04F42243CCF800204A6812F0805FD3
:101D3C0075D05A4A946944F001049461926902F096
:101D4C0001020192019AAC08A71C554A52F82720AF
:101D5C0005F00307BF004FF00F0C0CFA07FC22EA4A
:101D6C000C0C504A904232D002F58062904271D0F5
:101D7C0002F5806290426FD002F58062904224D0CE
:101D8C00042225E0A7F58017BA4203D007F5803767
:101D9C00BA42B9D18A687AB1012A08D044610826BE
:101DAC00B2E7CE680836AFE7CE680C36ACE7046114
:101DBC000826A9E70026A7E70426A5E700F1040CEE
:101DCC00A5E7A5F10804A400A4E7032200E0002283
:101DDC00BA4042EA0C020234314F47F824204A68D8
:101DEC0012F4801F3AD0304CA2681A43A2604A68A1
:101DFC0012F4001F38D02C4CE2681A43E2604A6897
:101E0C0012F4003F36D0284C62681A4362604A686C
:101E1C0012F4803F34D0244C2268134323600135E4
:101E2C000B6833FA05F231D00124AC4023409C42BC
:101E3C00F5D14A68122AB7D03FF657AF022AB0D074
:101E4C007FF64DAF032AB5D0112A7FF45DAFCE6873
:101E5C00043659E70122BBE70222B9E7124CA2680B
:101E6C0022EA0302A260C2E70F4CE26822EA0302F4
:101E7C00E260C4E70C4C626822EA03026260C6E7C7
:101E8C00094C226822EA03032360C8E702B0F0BCC5
:101E9C00704700BF000021100000311000100240FC
:101EAC000000014000080140000401400AB101613A
:101EBC00704709040161704790F82130DBB2022BA6
:101ECC0006D004238363002380F820300120704760
:101EDC000268136823F00E0313600268136823F082
:101EEC0001031360036CC16B012202FA03F34B6014
:101EFC0080F82120002380F820301846704700001D
:101F0C0008B590F82130DBB2022B03D00423836395
:101F1C00012008BD0268136823F00E0313600268E9
:101F2C00136823F0010313600368194A934214D019
:101F3C00143293421FD0143293421ED01432934267
:101F4C001ED0143293421ED01432934202D04FF062
:101F5C00807203E04FF4801200E001220D4B5A60B6
:101F6C00012380F82130002380F82030436B6BB1C3
:101F7C0098470020CDE71022F0E74FF48072EDE790
:101F8C004FF48052EAE74FF48032E7E70020C0E7D5
:101F9C000800024000000240074AD36823F4E063C3
:101FAC001B041B0C000200F4E060184340F0BF60FF
:101FBC0040F40030D060704700ED00E030B4174BB7
:101FCC00DB68C3F30223C3F10704042C28BF0424E9
:101FDC001D1D062D01D9033B00E000234FF0FF35FA
:101FEC0005FA04F421EA0401994005FA03F322EA04
:101FFC0003031943002809DB0901C9B200F1604051
:10200C0000F5614080F8001330BC704700F00F0001
:10201C000901C9B2024B1954F6E700BF00ED00E00C
:10202C0014ED00E0002807DB00F01F02400901233B
:10203C009340024A42F82030704700BF00E100E0B4
:10204C000138B0F1807F0AD2064B5860064AF02165
:10205C0082F823100020986007221A607047012034
:10206C00704700BF10E000E000ED00E0704700009A
:10207C0030B589B000240494059406940794184B49
:10208C009A6942F020029A619A6902F02002019248
:10209C00019A9A6942F004029A619A6902F0040268
:1020AC000292029A9A6942F008029A619B6903F0C3
:1020BC0008030393039B0B4D224646F21801284656
:1020CC00FFF7F4FE46F218030493012305930694DC
:1020DC000223079304A92846FFF7FCFD09B030BD85
:1020EC0000100240000C014008B50A480A4B03607E
:1020FC004FF4E133436000238360C36003610C221F
:10210C0042618361C36100F0F3F800B908BDFEF7CA
:10211C0031FBFBE7A00000200044004030B587B045
:10212C000023029303930493059302681B4B9A427A
:10213C0001D007B030BD03F5E633DA6942F4003262
:10214C00DA61DA6902F400320092009A9A6942F07C
:10215C0004029A619B6903F004030193019B04231D
:10216C00029302230393032305930D4D02A92846E2
:10217C00FFF7B0FD082302930024039404940DEBA5
:10218C0003012846FFF7A6FD224621462620FFF72D
:10219C0015FF2620FFF746FFCBE700BF00440040A9
:1021AC0000080140026802F10C0353E8003F23F4DD
:1021BC0090730C3242E800310029F3D1026802F12D
:1021CC00140353E8003F23F00103143242E80031BA
:1021DC000029F3D1036B012B05D0202380F842306A
:1021EC00002303637047026802F10C0353E8003FBD
:1021FC0023F010030C3242E800310029F3D1ECE754
:10220C0090F84130DBB2212B01D00220704783685B
:10221C00B3F5805F16D0036A5A1C02621A78036801
:10222C005A60C38C013B9BB2C3844BB90268D36820
:10223C0023F08003D3600268D36843F04003D3607B
:10224C00002070470369002BE5D1036A1B880268E4
:10225C00C3F308035360036A02330362E1E700002F
:10226C0038B504460268136923F44053C1680B4324
:10227C00136183680269134342691A430168CB688E
:10228C0023F4B05323F00C031343CB60026853695F
:10229C0023F4407381690B4353610268124B9A42D9
:1022AC001FD0FFF7F7FC00EB800000EB80006368A9
:1022BC009B00B0FBF3F00D4DA5FB003251096422DD
:1022CC0002FB110213013233A5FB03235B0903F05C
:1022DC00F00202EB011203F00F03216813448B6030
:1022EC0038BDFFF7E7FCDEE7003801401F85EB51F6
:1022FC0060B310B5044690F8413013B3242384F82E
:10230C0041302268D36823F40053D3602046FFF792
:10231C00A7FF2268136923F4904313612268536961
:10232C0023F02A0353612268D36843F40053D3602B
:10233C0000206064202384F8413084F842306063CC
:10234C0010BD80F84030FFF7E9FED7E70120704759
:10235C00704708B50168CB6823F04003CB6020239D
:10236C0080F84130FFF7F4FF002008BD704770473C
:10237C0008B5406A0023C385C384FFF7F8FF08BD86
:10238C00704790F84230DBB2222B68D18368B3F5EA
:10239C00805F4ED0826AB3F5805F04D0002B55D19C
:1023AC000369002B52D103685B681370836A013395
:1023BC008362C38D013B9BB2C385002B51D100B509
:1023CC0083B00268D36823F02003D3600268D3681B
:1023DC0023F48073D3600268536923F001035361C3
:1023EC00202380F8423000234363036B012B33D14D
:1023FC0000230363026802F10C0353E8003F23F04F
:10240C0010030C3242E800310029F3D103681A683A
:10241C0012F0100F06D0002201921A6801925B682C
:10242C000193019B818DFFF7ABFF002003B05DF89A
:10243C0004FB0269002AADD1826A03685B68C3F3AE
:10244C0008031380836A02338362B2E703685B6814
:10245C0003F07F031370A9E7FFF788FFE5E702207D
:10246C00704700207047000030B583B00446026806
:10247C001368D068516913F00F0505D113F0200FC4
:10248C0002D010F0200F19D12DB111F0010119D18A
:10249C0010F4907F16D1216B01297DD013F0800FA1
:1024AC0003D010F0800F40F0168113F0400F03D0D2
:1024BC0010F0400F40F0138103B030BD2046FFF701
:1024CC0060FFF9E713F0010F06D010F4807F03D002
:1024DC00626C42F00102626413F0040F04D019B173
:1024EC00626C42F00202626413F0020F04D019B164
:1024FC00626C42F00402626413F0080F07D010F013
:10250C00200F00D119B1626C42F008026264626C57
:10251C00002AD1D013F0200F02D010F0200F29D1B7
:10252C0023685B6903F04003626C12F0080F00D162
:10253C0063B32046FFF736FE23685B6913F0400F48
:10254C0020D0226802F1140353E8003F23F040032B
:10255C00143242E800310029F3D1E36B73B1624AC3
:10256C005A63E06BFFF7CCFC0028A5D0E06B436B03
:10257C009847A1E72046FFF704FFD1E72046FFF775
:10258C00F6FE99E72046FFF7F2FE95E72046FFF7A7
:10259C00EEFE002363648FE713F0100F3FF47EAF61
:1025AC0010F0100F3FF47AAF0023019313680193DE
:1025BC0053680193019B536913F0400F50D0E26BA9
:1025CC0013685B689BB2002B3FF476AFA18D9942E8
:1025DC007FF672AFE3859369202B37D0226802F126
:1025EC000C0353E8003F23F480730C3242E80031B3
:1025FC000029F3D1226802F1140353E8003F23F0C1
:10260C000103143242E800310029F3D1226802F1AF
:10261C00140353E8003F23F04003143242E8003126
:10262C000029F3D1202384F842300023236322684D
:10263C0002F10C0353E8003F23F010030C3242E884
:10264C0000310029F3D1E06BFFF736FC0223636302
:10265C00A18DE38DC91A89B22046FFF791FE2BE7B5
:10266C00A18DE38DC91A89B2E38D9BB2002B3FF487
:10267C0023AF00293FF420AF226802F10C0353E88A
:10268C00003F23F490730C3242E800300028F3D161
:10269C00226802F1140353E8003F23F001031432C3
:1026AC0042E800300028F3D1202384F84230002384
:1026BC002363226802F10C0353E8003F23F010035C
:1026CC000C3242E800300028F3D102236363204629
:1026DC00FFF756FEF0E62046FFF792FDECE62046AB
:1026EC00FFF737FEE8E600BF7D23000890F8413085
:1026FC0090F842001843704781628285C28500239E
:10270C004364222380F84230036923B10268D36802
:10271C0043F48073D3600268536943F0010353613F
:10272C000268D36843F02003D3600020704708B5DB
:10273C0090F84230DBB2202B08D149B10AB9012004
:10274C0008BD00230363FFF7D7FFF9E70220F7E783
:10275C000120F5E700B58DB02022002104A800F07F
:10276C00EBF900230193029311484FF08042026071
:10277C00436083604FF6FF72C26003618361012383
:10278C0003930593099303A9FEF758FC50B9002352
:10279C000193029301A90648FEF7BAFE28B90DB0C1
:1027AC005DF804FBFDF7E6FFF1E7FDF7E3FFF6E765
:1027BC00C001002000B58DB02022002104A800F03B
:1027CC00BBF90023019302931148124A0260436043
:1027DC0083604FF6FF72C260036183610123039330
:1027EC000593099303A9FEF729FC50B90023019323
:1027FC00029301A90648FEF78BFE28B90DB05DF8CF
:10280C0004FBFDF7B7FFF1E7FDF7B4FFF6E700BFF8
:10281C00300100200004004000B587B00023029373
:10282C00039304930593009301931448144A026094
:10283C00436083604FF6FF72C26003618361FEF7F1
:10284C00A5FB90B94FF48053029302A90B48FEF7F5
:10285C00F8FC68B900230093019369460748FEF71A
:10286C0057FE40B907B05DF804FBFDF783FFE9E7BD
:10287C00FDF780FFEEE7FDF77DFFF3E7E8000020B2
:10288C00000800400268094B9A4200D0704782B0A1
:10289C0003F564439A6942F400629A619B6903F4FC
:1028AC0000630193019B02B0704700BF002C0140F4
:1028BC0000B589B00023049305930693079303682E
:1028CC00B3F1804F05D01D4A93421DD009B05DF87D
:1028DC0004FB03F50433DA6942F00102DA61DA69C8
:1028EC0002F001020092009A9A6942F004029A6185
:1028FC009B6903F004030193019B0323049304A934
:10290C000F48FFF7E7F9E1E70E4BDA6942F00202F4
:10291C00DA61DA6902F002020292029A9A6942F0D2
:10292C0004029A619B6903F004030393039BC02385
:10293C00049304A90248FFF7CDF9C7E7000400404F
:10294C00000801400010024002680E4B9A4200D071
:10295C00704700B583B003F50233DA6942F0040224
:10296C00DA61DB6903F004030193019B0022114639
:10297C001E20FFF723FB1E20FFF754FB03B05DF86E
:10298C0004FB00BF0008004000B587B00023029391
:10299C0003930493059302680D4B9A4202D007B03F
:1029AC005DF804FB03F564439A6942F004029A61F2
:1029BC009B6903F004030193019B4FF41063029392
:1029CC0002230393059302A90248FFF783F9E6E774
:1029DC00002C01400008014010B592B00024109466
:1029EC00119409940A940B940C940D940E940F94D6
:1029FC002022214601A800F09FF82848284B0360AC
:102A0C0040F2CF23436084606423C360046144615B
:102A1C008461FEF7E7FA002830D10023109311935C
:102A2C0010A91E48FEF774FD00282AD160230993D3
:102A3C0000220A920B920C920D920E920F9209A9FF
:102A4C001648FEF785FBF8B90C2209A91348FEF7C6
:102A5C007FFBE0B900230193029303930493059346
:102A6C004FF400520692089301A90C48FEF784FD1E
:102A7C0080B90A48FFF788FF12B010BDFDF77AFE47
:102A8C00CBE7FDF777FED1E7FDF774FEDCE7FDF74A
:102A9C0071FEDFE7FDF76EFEEBE700BF780100206B
:102AAC00002C0140FFF7E2FA0B480C490C4A0023BA
:102ABC0002E0D458C4500433C4188C42F9D3094AE8
:102ACC00094C002301E013600432A242FBD300F056
:102ADC000FF8FDF783FE7047000000202400002053
:102AEC00A02B00082400002008020020FEE70000B4
:102AFC0070B500260C4D0D4C641BA410A64209D1D8
:102B0C0000F022F800260A4D0A4C641BA410A642C1
:102B1C0005D170BD55F8043B98470136EEE755F8E2
:102B2C00043B98470136F2E7982B0008982B0008D5
:102B3C00982B00089C2B000803460244934200D1BA
:102B4C00704703F8011BF9E7F8B500BFF8BC08BCE7
:102B5C009E467047F8B500BFF8BC08BC9E4670474F
:102B6C0002030405060708090A0B0C0D0E0F1010C2
:102B7C00010200000000000000000000010203043C
:0C2B8C0006070809000000000102030415
:042B980031010008FF
:042B9C000D0100081F
:102BA000CDCC4C3E000080BFA69BC43B0AD723BCC3
:102BB0000000803F000040C0010000001000000045
:042BC0000024F400F9
:0400000508002AB114
:00000001FF
